:100000000C945D000C9485000C9485000C94850084
:100010000C9485000C9485000C9485000C9485004C
:100020000C9485000C9485000C9485000C9485003C
:100030000C9485000C9485000C9485000C9485002C
:100040000C94BB020C9485000C9485000C948500E4
:100050000C9485000C9485000C9485000C9485000C
:100060000C9485000C94850000000008000201003B
:100070000003040700000000000000000000000072
:10008000250028002B0000000000240027002A0083
:10009000040404040404040402020202020203032E
:1000A0000303030301020408102040800102040836
:1000B0001020010204081020F90311241FBECFEF05
:1000C000D8E0DEBFCDBF11E0A0E0B1E0E8E4F8E0A9
:1000D00002C005900D92AC34B107D9F721E0ACE431
:1000E000B1E001C01D92AD36B207E1F710E0CDE5F9
:1000F000D0E004C02197FE010E941704CC35D1073F
:10010000C9F70E9405030C9422040C94000090E0AF
:10011000FC01EC55FF4F2491FC01E057FF4F849107
:10012000882399F090E0880F991FFC01EA57FF4F50
:10013000A591B491FC01E458FF4F859194918FB73C
:10014000F894EC91E22BEC938FBF0895CF92DF925D
:10015000EF92FF920F931F93CF93DF936C017A017D
:100160008B01C0E0D0E0CE15DF0581F0D8016D91A4
:100170008D01D601ED91FC910190F081E02DC60139
:100180000995892B11F02196EECF7E01C701DF91F1
:10019000CF911F910F91FF90EF90DF90CF90089536
:1001A00090E0FC01E859FF4F2491FC01EC55FF4F12
:1001B0003491FC01E057FF4FE491EE2309F43CC079
:1001C000222339F1233091F038F42130A9F0223084
:1001D00001F584B58F7D12C0273091F02830A1F051
:1001E0002430B9F4809180008F7D03C0809180001D
:1001F0008F77809380000DC084B58F7784BD09C050
:100200008091B0008F7703C08091B0008F7D809384
:10021000B000F0E0EE0FFF1FE458FF4FA591B4913E
:100220009FB7F894611104C08C913095382302C0B7
:10023000EC913E2B3C939FBF08953FB7F89480917B
:10024000510190915201A0915301B091540126B5F2
:10025000A89B05C02F3F19F00196A11DB11D3FBFFE
:10026000BA2FA92F982F8827820F911DA11DB11D8C
:10027000BC01CD0142E0660F771F881F991F4A9588
:10028000D1F70895CF93DF93EC0160E08E810E9457
:10029000D00061E08E810E94D00060E08E810E94DB
:1002A000D0008BE891E00197F1F7DF91CF910895AD
:1002B000CF92DF92EF92FF920F931F93CF93DF9332
:1002C0006C017C0187E0E80EF11CC0E0D0E0062F55
:1002D00010E0B8010C2E02C0759567950A94E2F7FC
:1002E0006170F70181917F010E94D0002196C43096
:1002F000D10579F7C601DF91CF911F910F91FF9042
:10030000EF90DF90CF900C944201CF92DF92EF926A
:10031000FF920F931F93CF93DF93EC01F62E642F80
:100320008C810E94D0008D818F3F19F060E00E9487
:10033000D0008F850F2D10E084FF25C06E0187E06F
:10034000C80ED11CE12CF12CB8010E2C02C0759501
:1003500067950A94E2F76170F60181916F010E943E
:10036000D000FFEFEF1AFF0A88E0E816F10461F70A
:10037000CE01DF91CF911F910F91FF90EF90DF9011
:10038000CF900C944201B80184E0759567958A95E9
:10039000E1F7CE010E9458016F2DCE01DF91CF9180
:1003A0001F910F91FF90EF90DF90CF900C94580128
:1003B00040E0682F85E591E00C948501CF93DF93B1
:1003C000823028F09091640198609093640180934A
:1003D00068011092690180E480936A0180E1809352
:1003E0006B0180E580936C01809159010E94870028
:1003F00080915A018F3F11F00E94870080915B012C
:100400000E948700C5E5D1E09E01255531408091CD
:10041000640184FD03C084E090E002C088E090E0C5
:1004200021962817390724F48E810E948700ECCF8B
:100430008BE39DE00197F1F760E0809159010E9404
:10044000D00060E080915B010E94D00080915A0151
:100450008F3F19F060E00E94D0008091640184FD1C
:1004600020C063E085E591E00E945801CBE4D6E42A
:10047000CE010197F1F763E085E591E00E94580114
:100480002197F1F763E085E591E00E94580183E54B
:1004900092E00197F1F762E085E591E00E94580152
:1004A00015C080620E94D8018BE496E40197F1F7B1
:1004B0008091640180620E94D80183E592E00197F7
:1004C000F1F78091640180620E94D80180916401FB
:1004D00080620E94D80184E0809365018CE00E94D4
:1004E000D80181E00E94D8018BE39FE10197F1F7E9
:1004F00082E08093660186E0DF91CF910C94D80171
:10050000643008F063E090916801691710F06FEFB4
:10051000690FE62FF0E0EB5AFE4F9489890F80684F
:100520000C94D80141E00E94850181E090E008959B
:100530000F931F93CF93DF938B01877028E0829FE7
:10054000C001112480640E94D801E801085F1F4F98
:10055000699185E591E00E949202C017D107C1F729
:10056000DF91CF911F910F910895089580E090E061
:1005700008950E941D041F920F920FB60F9211242E
:100580002F933F938F939F93AF93BF9380914D0190
:1005900090914E01A0914F01B091500130914C01CA
:1005A00023E0230F2D3720F40196A11DB11D05C0B6
:1005B00026E8230F0296A11DB11D20934C018093C4
:1005C0004D0190934E01A0934F01B0935001809143
:1005D000510190915201A0915301B09154010196A3
:1005E000A11DB11D8093510190935201A09353011D
:1005F000B0935401BF91AF919F918F913F912F91F3
:100600000F900FBE0F901F901895789484B582605C
:1006100084BD84B5816084BD85B5826085BD85B5A6
:10062000816085BD80916E00816080936E00109224
:10063000810080918100826080938100809181009F
:100640008160809381008091800081608093800030
:100650008091B10084608093B1008091B00081608E
:100660008093B00080917A00846080937A008091BA
:100670007A00826080937A0080917A008160809312
:100680007A0080917A00806880937A001092C1008D
:1006900082E00E94DE010BE31FE190E0A92E90E0D2
:1006A000B92E68E371E080E00E94980260E371E097
:1006B00081E00E94980268E271E082E00E94980264
:1006C00060E271E083E00E94980268E171E084E0FA
:1006D0000E94980260E171E085E00E94980268E063
:1006E00071E086E00E94980260E071E087E00E947D
:1006F000980260E08EE00E94800260E085E591E073
:100700000E94920260E08FE00E94800261E085E535
:1007100091E00E94920261E08EE00E94800262E01D
:1007200085E591E00E94920261E08FE00E948002E4
:1007300063E085E591E00E949202C0E060E08C2FCA
:100740000E94800264E085E591E00E94920261E0EF
:100750008C2F0E94800265E085E591E00E94920264
:10076000CF5F60E08C2F0E94800266E085E591E01B
:100770000E94920261E08C2F0E94800267E085E572
:1007800091E00E9492020E941D012B013C0188EC25
:10079000C82ED12CE12CF12C0E941D01DC01CB01D3
:1007A00084199509A609B709883E9340A105B105AA
:1007B00098F321E0C21AD108E108F10888EE480E4A
:1007C00083E0581E611C711CC114D104E104F104C2
:1007D00019F7CF3009F0B2CF81E00E94D801C801EB
:1007E0000197F1F7A114B10409F45BCF0E94000056
:1007F00058CFE5E5F1E01382128284E491E0918321
:1008000080838CE084838FEF85838BE0868385E013
:10081000878384E0808783E0818782E082871386F4
:10082000148615861686178681E00C94DE01EE0F7D
:10083000FF1F0590F491E02D099481E090E0F89479
:080840000C942204F894FFCF90
:100848001F02040800000000000000000804021F46
:100858001F00000000000000000000000000001F52
:100868001E1E1C1C181810000F0F07070303010099
:100878000000081C1E1E1E1E000002070F0F0F0F8F
:0C088800000000009202A600B602B502BB
:107E0000112484B714BE81FFF0D085E080938100F7
:107E100082E08093C00088E18093C10086E0809377
:107E2000C20080E18093C4008EE0C9D0259A86E02C
:107E300020E33CEF91E0309385002093840096BBD3
:107E4000B09BFECF1D9AA8958150A9F7CC24DD24C4
:107E500088248394B5E0AB2EA1E19A2EF3E0BF2EE7
:107E6000A2D0813461F49FD0082FAFD0023811F036
:107E7000013811F484E001C083E08DD089C08234E0
:107E800011F484E103C0853419F485E0A6D080C0E4
:107E9000853579F488D0E82EFF2485D0082F10E0AE
:107EA000102F00270E291F29000F111F8ED06801E7
:107EB0006FC0863521F484E090D080E0DECF843638
:107EC00009F040C070D06FD0082F6DD080E0C81688
:107ED00080E7D80618F4F601B7BEE895C0E0D1E017
:107EE00062D089930C17E1F7F0E0CF16F0E7DF06D8
:107EF00018F0F601B7BEE89568D007B600FCFDCFD4
:107F0000A601A0E0B1E02C9130E011968C91119780
:107F100090E0982F8827822B932B1296FA010C0160
:107F200087BEE89511244E5F5F4FF1E0A038BF0790
:107F300051F7F601A7BEE89507B600FCFDCF97BE46
:107F4000E89526C08437B1F42ED02DD0F82E2BD052
:107F50003CD0F601EF2C8F010F5F1F4F84911BD097
:107F6000EA94F801C1F70894C11CD11CFA94CF0C13
:107F7000D11C0EC0853739F428D08EE10CD085E9AC
:107F80000AD08FE07ACF813511F488E018D01DD067
:107F900080E101D065CF982F8091C00085FFFCCF94
:107FA0009093C60008958091C00087FFFCCF809118
:107FB000C00084FD01C0A8958091C6000895E0E648
:107FC000F0E098E1908380830895EDDF803219F02E
:107FD00088E0F5DFFFCF84E1DECF1F93182FE3DFCA
:107FE0001150E9F7F2DF1F91089580E0E8DFEE27F6
:047FF000FF270994CA
:027FFE00040479
:0400000300007E007B
:00000001FF
